{
  "transactions": [
    {
      "hash": "0x3778a5e08cdc75d18d30d61cc8251b8ed396d225271f24ea6f882b5cf6861773",
      "transactionType": "CALL",
      "contractName": "SelfDestructContract",
      "contractAddress": "0xc7f2cf4845c6db0e1a1e91ed41bcd0fcc1b0e141",
      "function": "selfDestruct(address)",
      "arguments": [
        "0xB9E8D4d80276CC148e13b6a18E0b9f3078cF031A"
      ],
      "transaction": {
        "from": "0xa86ea1be0a43ea977dd7489c7c91247b1a7bc50b",
        "to": "0xc7f2cf4845c6db0e1a1e91ed41bcd0fcc1b0e141",
        "gas": "0x73a2",
        "value": "0x174876e800",
        "input": "0x3f5a0bdd000000000000000000000000b9e8d4d80276cc148e13b6a18e0b9f3078cf031a",
        "nonce": "0x23",
        "chainId": "0xaa36a7",
        "accessList": null,
        "type": null
      },
      "additionalContracts": [],
      "isFixedGasLimit": false
    }
  ],
  "receipts": [
    {
      "status": "0x1",
      "cumulativeGasUsed": "0x48a717",
      "logs": [],
      "logsBloom": "0x00000000000000000000000000000000000000000000000000000000000000000000000000000000000000000000000000000000000000000000000000000000000000000000000000000000000000000000000000000000000000000000000000000000000000000000000000000000000000000000000000000000000000000000000000000000000000000000000000000000000000000000000000000000000000000000000000000000000000000000000000000000000000000000000000000000000000000000000000000000000000000000000000000000000000000000000000000000000000000000000000000000000000000000000000000000",
      "type": "0x2",
      "transactionHash": "0x3778a5e08cdc75d18d30d61cc8251b8ed396d225271f24ea6f882b5cf6861773",
      "transactionIndex": "0x45",
      "blockHash": "0xe428e26726f3f88f52f90fa5821dc40b0f151d7a0380a53f0c45b8db4a177b74",
      "blockNumber": "0x57d0a9",
      "gasUsed": "0x53b8",
      "effectiveGasPrice": "0x2cc093e6",
      "from": "0xa86ea1be0a43ea977dd7489c7c91247b1a7bc50b",
      "to": "0xc7f2cf4845c6db0e1a1e91ed41bcd0fcc1b0e141",
      "contractAddress": null
    }
  ],
  "libraries": [],
  "pending": [],
  "returns": {},
  "timestamp": 1713813521,
  "chain": 11155111,
  "commit": "205068d"
}